:020000040800F2
:100000007808002035020008371900088516000816
:100010003519000885040008C31D00080000000011
:100020000000000000000000000000003B19000874
:10003000870400080000000039190008551900085D
:100040004F0200084F0200084F0200084F0200084C
:100050004F0200084F0200084F0200084F0200083C
:100060004F020008890400088F0400084F020008AE
:100070004F0200084F0200084F0200084F0200081C
:100080004F0200084F0200084F0200080000000065
:1000900000000000000000000000000095040008BF
:1000A0004F020008FD1900084F0200084F02000827
:1000B0004F0200084F0200084F0200084F020008DC
:1000C0004F0200084F0200084F0200084F020008CC
:1000D0004F0200084F0200084F0200080000000015
:1000E0004F0200084F0200084F0200080000000005
:1000F0000000000000000000000000004F020008A7
:10010000000000004F0200084F0200084F020008E4
:1001100000000000000000000000000000000000DF
:100120004F0200084F0200084F0200084F0200086B
:100130004F02000800000000000000000000000066
:100140000000000000000000000000004F02000856
:100150004F0200084F0200084F0200084F0200083B
:100160004F0200084F0200080000000000000000DD
:10017000000000000000000000000000000000007F
:10018000000000004F020008000000000000000016
:100190004F02000800F002F800F03CF80AA090E8D6
:1001A000000C82448344AAF10107DA4501D100F032
:1001B00031F8AFF2090EBAE80F0013F0010F18BFC3
:1001C000FB1A43F001031847A81F0000C81F0000D6
:1001D000103A24BF78C878C1FAD8520724BF30C873
:1001E00030C144BF04680C60704700000023002445
:1001F00000250026103A28BF78C1FBD8520728BF37
:1002000030C148BF0B6070471FB501F09FFF1FBD95
:1002100010B510BD00F0CFF81146FFF7F5FF01F063
:10022000E7FE00F0EDF803B4FFF7F2FF03BC00F0C7
:10023000F5F800000948804709480047FEE7FEE757
:10024000FEE7FEE7FEE7FEE7FEE7FEE7FEE7FEE786
:1002500004480549054A064B70470000ED1900089F
:10026000950100087802002078080020780400201A
:100270007804002053EA020C00F069802DE9F04B6D
:100280004FF00006002B1FBFB3FA83F503FA05F405
:1002900024FA05F65E4012BF1643B2FA82F502FA5E
:1002A00005F4C5F120051EBF22FA05FC44EA0C0442
:1002B000203556EA044C4FEA144418BF641C4FF032
:1002C00000084FF00009904271EB030C39D300296C
:1002D00019BFB1FA81F701FA07F6B0FA80F700FA10
:1002E00007F6C7F120071EBF20FA07FC46EA0C06F6
:1002F0002037B6FBF4FCA7EB0507103F07F01F0BF8
:10030000CBF120060CFA0BFB2CFA06F644BFB346E1
:100310000026202FA4BF5E464FF0000B5BEA060CC0
:1003200008BF4FF0010B19EB0B09ABFB027C48EB4C
:100330000608C01B06FB02CC0BFB03CC71EB0C01C7
:10034000C1E70B46024641464846BDE8F08B13B56F
:100350004FF000004FF00001AFF30080BDE81C40FB
:1003600070474FF0000200B5134694469646203978
:1003700022BFA0E80C50A0E80C50B1F12001BFF45E
:10038000F7AF090728BFA0E80C5048BF0CC05DF8C4
:1003900004EB890028BF40F8042B08BF704748BF12
:1003A00020F8022B11F0804F18BF00F8012B704786
:1003B000704770477047754600F02CF8AE46050050
:1003C0006946534620F00700854618B020B5FFF770
:1003D0003FFFBDE820404FF000064FF000074FF010
:1003E00000084FF0000B21F00701AC46ACE8C00953
:1003F000ACE8C009ACE8C009ACE8C0098D4670475C
:1004000010B50446AFF300802046BDE81040FFF76A
:100410000ABF000000487047180200200149182058
:10042000ABBEFEE726000200704700001448F0EE65
:10043000081A016BD0ED0D0A491C90ED090A01EE76
:10044000101A70EEC00AB8EEC11A20EE811AC1EE81
:10045000210A01EE101AB8EEC11A30EE800A80EDC2
:10046000080AD0ED0E0A90ED0B0A70EEC00A20EEDD
:10047000811AC1EE210A30EE800A80ED0A0A704727
:1004800014000020FEE77047082000F02FB810206D
:1004900000F02CB810B5202000F028F8BDE810407E
:1004A000402000F023B872B6FEE700000D4A0E4966
:1004B000082809D010280BD020280ED040280BD1B6
:1004C00090890880D08906E010880880508802E072
:1004D00090880880D08848807047108908805089AB
:1004E000F9E700008801002030000020044910B521
:1004F0000A68024202D00860FFF7D8FF10BD000072
:10050000143C01402DE9F84FDFF87C910022A9F15D
:10051000040B03274FF00F0C09F1040AABF1040E92
:1005200001250B6895402B40AB426ED10C7904F04D
:100530000304012C01D0022C15D18668540007FA5F
:1005400004F826EA0806D1F80C8008FA04F848EA0C
:100550000608C0F808804468AC430D79C5F300155F
:100560009540254345600C79E443A40708D0C5684D
:10057000540007FA04F6B5438E68A6402E43C660C1
:100580000C7904F00304022C11D1D40800EB84068A
:10059000356A5407E40E0CFA04F825EA0805D1F888
:1005A000108008FA04F848EA0508C6F820800568B3
:1005B000540007FA04F6B5430E7906F00306A64088
:1005C0002E4306604C6814F4403F57D02F4C2568EA
:1005D00045F480452560246822F0030504F4804436
:1005E00000942B4C05EB0408D8F808589407260F04
:1005F0000CFA06F4A543274CA04201D1002415E0D3
:10060000254CA04202D1012410E037E0234CA04247
:1006100001D102240AE0224CA04201D1032405E0CA
:10062000204CA04201D1042400E00724B4402C4314
:10063000C8F80848D9F800404D464E689C43F60279
:1006400000D51C432C60DAF8004055464E689C43A8
:10065000B60200D51C432C60DBF800405D464E68B6
:100660009C43B60300D51C432C60DEF80040754661
:100670004E689C43F60300D51C432C60521C102A84
:10068000FFF44EAFBDE8F88F083C0140443802400B
:100690000030014000000240000402400008024017
:1006A000000C0240001002400AB181617047090449
:1006B000FBE700000148806870470000040000204C
:1006C00070B5040025D094F83D00002520B984F8C9
:1006D0003C50204600F0B8F8242084F83D00206803
:1006E000016821F0010101602068016841F40041C6
:1006F00001602068016821F40041016000F00CFAFB
:100700004D4B6168994201D84C4900E04C49884200
:1007100001D2012070BD4B492268B0FBF1F156684F
:1007200026F03F060E43566062689A4206D94FF49F
:10073000967251434FF47A72B1FBF2F12268491C70
:10074000166A26F03F06314311626168994210D85B
:100750004900401EB0FBF1F2521CC2F30B02042A06
:1007600001D2042022E0B0FBF1F0401CC0F30B00EA
:100770001CE0A268F2B301EBC10303EB0116431EB8
:10078000B3FBF6F35B1C43F480431B0549D092B3E3
:1007900001EBC10202EB0111401EB0FBF1F0401C65
:1007A000C0F30B0040F4804040F400402168CA6967
:1007B0004CF6FF739A431043C861D4E90710014314
:1007C0002068026822F0C00211430160D4E90301ED
:1007D00001432068826848F2FF339A4311438160E5
:1007E000D4E9051001432068C26822F0FF021143DA
:1007F000C16001E00EE016E02068016841F00101EF
:1008000001602564202084F83D00256384F83E5073
:10081000002070BD01EB4106431EB3FBF6F35B1CE9
:10082000B3E70120C2E701EB4101401EB0FBF1F04C
:10083000401CC0F30B00B7E7A086010080841E00B7
:1008400000093D0040420F0010B586B00446142157
:100850006846FFF786FD13492068884220D1124878
:100860000021026842F002020260006800F002000B
:100870000590C02000901220CDE9010103200390D3
:100880000420049069460948FFF73CFE06481030F2
:10089000016841F400110160006800F40010059047
:1008A00006B010BD00540040303802400004024041
:1008B000024881680278114481607047040000207A
:1008C0000B4810B5016841F400710160016841F402
:1008D00080610160016841F480710160032000F0D3
:1008E0006FF80F2000F006F800F024F8002010BD8B
:1008F000003C024070B50D4D04464FF47A712878E3
:10090000B1FBF0F00A490968B1FBF0F000F002FB1E
:1009100048B9102C07D200222146501E00F030F8B2
:1009200000206C6070BD012070BD0000040000203C
:10093000100000200A4808B5016841F480410160B8
:10094000006800F4804000900548001F016841F0F5
:1009500080510160006800F08050009008BD0000E8
:1009600044380240002809DB00F01F0201219140B9
:100970004009800000F1E020C0F80011704700003D
:10098000F0B40E4B1B68C3F30223C3F10704042C1D
:1009900000D904241D1D072D01D2002300E0DB1E19
:1009A000012606FA04F56D1E0D409D409E40761E00
:1009B000164045EA0601F0BC01F004BA0CED00E077
:1009C000064A00F0070110684FF6FF03184040EA9E
:1009D0000120034908431060704700000CED00E05F
:1009E0000000FA052DE9F0470D46040065D0DFF858
:1009F0001491D9F80000EFB200F00700A84207D226
:100A000089F80070D9F8000000F00700A84254D11E
:100A100020683D4E810712D5400703D5306840F469
:100A2000E05030602078000703D5306840F4604023
:100A300030603068A16820F0F00008433060207812
:100A4000C0072DD0304960680839012812D002282B
:100A500013D0032811D00968890700292DDA3168DD
:100A600021F0030101433160FFF724FE804641F28B
:100A7000883A0EE009688903EFE709688901ECE725
:100A8000FFF718FEA0EB0801514502D90320BDE88D
:100A9000F0873068616800F00C00B0EB810FEFD197
:100AA000D9F80010484601F00701A94207D907709C
:100AB000006800F00700A84201D00120E7E7207895
:100AC000400705D53068E16820F4E0500843306005
:100AD0002078000706D53068216920F4604040EA9C
:100AE000C100306000F038F83168084AC1F30311E2
:100AF000515CC8400649086006480068FFF7FAFEE6
:100B00000020C4E7003C024008380240562100089B
:100B1000100000200800002004480549006809680A
:100B2000044AC1F38221515CC84070471000002084
:100B30000838024066210008044805490068096831
:100B4000044AC1F34231515CC84070471000002094
:100B50000838024066210008154810B5006810F0FA
:100B60000C01144813D0144B04290FD008290ED1BE
:100B70000F4C241F216801F03F022168490207D56C
:100B80002068C0F38810A0FB030106E0184610BDE2
:100B90002168C1F38811A1FB00010023FFF76AFB64
:100BA0002168C1F30141491C4900B0FBF1F010BDBF
:100BB000083802400024F40040787D012DE9F84F08
:100BC000040075D02078DFF838A3C007AAF1040527
:100BD00048D00AF104000168C1F38101012908D05D
:100BE0000068C0F3810002280AD1DAF80000400250
:100BF00006D52868800335D560680028E1D031E04B
:100C00006068B0F5803F10D0B0F5A02F286810D0F4
:100C100020F480302860286820F4802028606068F4
:100C2000A0B1FFF747FD06460CE0286840F480308D
:100C3000F4E740F480202860F7E7FFF73BFD801BD6
:100C4000642871D828688003F7D50BE0FFF732FDE0
:100C5000064604E0FFF72EFD801B6428F1D82868C3
:100C60008003F7D42078DFF89C9280074FF0000BC8
:100C70003DD5A348001D016811F00C0F08D0006895
:100C8000C0F3810002280AD1DAF80000400206D43D
:100C90002868800715D5E068012809D111E0E068CF
:100CA000B8B10120C9F80000FFF704FD064605E0D1
:100CB00022E1FFF7FFFC801B0228C2D828688007CA
:100CC000F7D52868216920F0F80040EAC1002860C3
:100CD0000DE0C9F800B0FFF7EDFC064604E0FFF7B1
:100CE000E9FC801B02281FD828688007F7D42078E9
:100CF000000722D5824F84486169703771B10121A4
:100D00000160FFF7D7FC064604E0FFF7D3FC801B29
:100D1000022809D838688007F7D50EE0C0F800B07F
:100D2000FFF7C8FC064605E082E0FFF7C3FC801B26
:100D300002287DD838688007F7D42078400765D529
:100D40006F484FF000083C300068C0000BD46C487E
:100D50003C30016841F08051016000684FF00108AB
:100D600000F080500090694F3868C0050FD4386893
:100D700040F480703860FFF79DFC064604E0FFF702
:100D800099FC801B022853D83868C005F7D55C4F02
:100D9000A0686C3701280FD00528386810D020F0E3
:100DA00001003860386820F004003860A068B0B1F5
:100DB000FFF780FC06460EE0386840F00100F4E7DB
:100DC00040F004003860F7E7FFF774FC811B41F244
:100DD0008830814263D838688007F5D50DE0FFF789
:100DE00069FC064606E0FFF765FC811B41F288308E
:100DF000814254D838688007F5D4B8F1000F05D087
:100E00003F483C30016821F080510160A069B8B3CF
:100E10003B49091D0968C1F38101022946D0022816
:100E2000584606D0C9F86000FFF744FC044639E094
:100E300035E04F46C9F86000FFF73CFC064604E089
:100E4000FFF738FC801B022829D828688001F7D4D6
:100E5000D4E907010843A16A2D4A490802EB014180
:100E6000626A41EA8211084394F82C1040EA016159
:100E7000CAF8001001203866FFF71CFC044605E0A4
:100E80003CE0FFF717FC001B022808D82868800107
:100E9000F7D533E0FFF70EFC001B022802D9032030
:100EA000BDE8F88F28688001F4D427E00128F7D046
:100EB000DAF80000E26900F4800191421CD1226A54
:100EC00000F03F01914217D147F6C071626A0140BC
:100ED000B1EB821F10D1A26A4FF0FF3300F4403112
:100EE00003EB5202B1EB024F06D194F82C1000F044
:100EF0007060B0EB016F01D00120D1E70020CFE797
:100F00000438024000004742800E47420070004013
:100F10000000FFFF10B5401EB0F1807F01D301201B
:100F200010BD4FF0E02460610F21601700F04AFF10
:100F30000020A06107202061002010BD704770478D
:100F400070B590F83C20012A2CD0012580F83C5047
:100F5000022280F83D2002685368946823F07006EE
:100F60000B6833435360104B02689A420ED0B2F1C3
:100F7000804F0BD00D4B9A4208D00D4B9A4205D0B2
:100F80000C4B9A4202D00C4B9A4204D1496824F08F
:100F900080031943916080F83D50002180F83C1097
:100FA000084670BD022070BD0000014000040040F2
:100FB00000080040000C00400040014010B5040053
:100FC00003D094F83D0010B107E0012010BD0020CF
:100FD00084F83C00204600F01FF8022084F83D0011
:100FE000211D206800F010FD012084F8460084F8DF
:100FF0003E0084F83F0084F8400084F8410084F803
:10100000420084F8430084F8440084F8450084F8E2
:101010003D00002010BD000008B50068114988425D
:1010200012D11148016841F00101016000680022FD
:1010300000F00100009001211920FFF7A1FCBDE89C
:1010400008401920FFF78EBCB0F1804F09D1064847
:10105000001F016841F001010160006800F001001B
:10106000009008BD000001404438024090F83D1057
:10107000012901D001207047022180F83D1000684D
:101080000E4988420ED0B0F1804F0BD00C498842F7
:1010900008D00C49884205D00B49884202D00B4940
:1010A000884204D1816801F00701062903D0016854
:1010B00041F0010101600020704700000000014084
:1010C0000004004000080040000C004000400140C7
:1010D00090F83D10012901D001207047022180F8CD
:1010E0003D100168CA6842F00102CA6000680E49FA
:1010F00088420ED0B0F1804F0BD00C49884208D006
:101100000B49884205D00B49884202D00A498842DF
:1011100004D1816801F00701062903D0016841F07C
:101120000101016000207047000001400004004000
:1011300000080040000C00400040014070B504462B
:1011400090F83C000025012817D0012684F83C6067
:10115000022084F83D002068826822F0770222F4A1
:101160007F4282600868502838D00DDC20284FD09C
:1011700005DC90B3102811D14AE0022070BD302860
:1011800046D040280AD13BE060282FD070280DD0EF
:10119000B0F5805F03D0B0F5005F12D0012584F870
:1011A0003D60002084F83C00284670BDCB68D1E942
:1011B0000121206800F085FC2068816841F07701FA
:1011C00009E0CB68D1E90121206800F07AFC2068B1
:1011D000816841F480418160E1E719E0CA684968AB
:1011E000206800F029FD5021206806E0CA6849689F
:1011F000206800F032FD6021206800F06CFCCEE732
:10120000CA684968206800F017FD40212068F4E7AB
:10121000226801461046F0E770472DE9F041044688
:101220000068C66805694FF00007A90713D5B10724
:1012300011D5F91E0161012020772068806980079F
:10124000204602D0FFF7E8FF04E000F0A7F82046B0
:1012500000F039F92777680716D5700714D521688B
:101260006FF004000861022020772068806910F484
:10127000407F204602D0FFF7CFFF04E000F08EF859
:10128000204600F020F92777280715D5300713D519
:1012900021686FF008000861042020772068C06989
:1012A0008007204602D0FFF7B7FF04E000F076F891
:1012B000204600F008F92777E80616D5F00614D581
:1012C00021686FF010000861082020772068C0694D
:1012D00010F4407F204602D0FFF79EFF04E000F0AC
:1012E0005DF8204600F0EFF82777E80708D0F00710
:1012F00006D021686FF001000861204600F040F937
:10130000280608D5300606D521686FF080000861F0
:101310002046FFF713FE680608D5700606D521683B
:101320006FF040000861204600F034F9A8060AD5A5
:10133000B00608D521686FF0200008612046BDE89E
:10134000F041FFF7FCBDBDE8F081000010B586B0AC
:10135000044614216846FFF704F82068B0F1804F76
:1013600015D10C480021026842F0010202600068B9
:1013700000F001000590032000900220CDE901015A
:101380000120CDE9031069460348FFF7BBF806B01A
:1013900010BD00003038024000000240704770B5B8
:1013A000044690F83C0000260D4601280FD001208D
:1013B00084F83C006AB1042A1DD0082A2FD00C2AD8
:1013C0003FD00126002084F83C00304670BD02204A
:1013D00070BD206800F088FB2068816941F0080139
:1013E00081612068816921F004018161206881693F
:1013F0002A69114311E0206800F0A2FB206881698E
:1014000041F4006181612068816921F4806181611A
:10141000206881692A6941EA02218161D2E7206856
:1014200000F0BCFB2068C16941F00801C16120687F
:10143000C16921F00401C1612068C1692A691143B1
:1014400011E0206800F0D6FB2068C16941F400611A
:10145000C1612068C16921F48061C1612068C169EE
:101460002A6941EA0221C161ACE710B5040003D04A
:1014700094F83D0010B107E0012010BD002084F871
:101480003C00204600F01EF8022084F83D00211D9B
:10149000206800F0B9FA012084F8460084F83E0084
:1014A00084F83F0084F8400084F8410084F842004A
:1014B00084F8430084F8440084F8450084F83D0033
:1014C000002010BD7047704710B5044649B104298B
:1014D0000AD008290BD094F8410001280AD0012035
:1014E00010BD94F83E00F8E794F83F00F5E794F853
:1014F0004000F2E7022071B3042930D0082931D02E
:1015000084F841000122206800F0CEFA17492068D3
:10151000884203D1426C42F400424264206888420F
:101520000ED0B0F1804F0BD01149884208D011493C
:10153000884205D01049884202D01049884204D11F
:10154000816801F00701062903D0016841F001011B
:101550000160002010BDFFE784F83E00D2E784F868
:101560003F00CFE784F84000CCE7000000000140D6
:101570000004004000080040000C00400040014012
:1015800000680349884201D100F02CBC704700007C
:1015900000000140704770B5040004D094F8410089
:1015A000002510B106E0012070BD84F840502046AF
:1015B00000F024F8242084F841002068C16821F458
:1015C0000051C160204600F05BFB2068016921F4F6
:1015D000904101612068416921F02A014161206840
:1015E000C16841F40051C1606564202084F8410065
:1015F00084F842006563002070BD000010B586B01D
:10160000044614216846FEF7ACFE1449206888425F
:1016100021D113480021026842F0100202600068E4
:1016200000F0100005900E481438026842F00102E4
:101630000260006800F0010005904FF4C060009067
:101640000220CDE9010103200390072004906946A0
:101650000448FEF757FF06B010BD0000001001401F
:10166000443802400000024090F84230202B01D064
:101670000220704721B11AB10023036300F086BB3A
:1016800001207047FEE710B54FF0804302685C42CE
:10169000F0EE000AB8EE000A9A4202DDC0ED000A40
:1016A00003E0A24201D980ED000A0868984202DDF9
:1016B000C1ED000A10BDA042FCD981ED000A10BDA9
:1016C000F0B587B014216846FEF74BFE334800247E
:1016D000016841F004010160016801F00401059115
:1016E000016841F080010160016801F0800105910D
:1016F000016841F001010160016801F001010591FB
:10170000016841F0020101600068254E00F002000E
:101710004FF400550590002229463046FEF7C4FFDD
:10172000204F002206213846FEF7BEFF0095012516
:10173000CDE90154694630460394FEF7E3FE782074
:1017400000904FF48810CDE9010469461648FEF771
:10175000D9FE0620009011200394CDE901056946C9
:101760003846FEF7CFFE002211460920FFF708F9A0
:101770000920FFF7F7F8002211460A20FFF700F9C9
:101780000A20FFF7EFF8002211461720FFF7F8F8BC
:101790001720FFF7E7F807B0F0BD0000303802402F
:1017A0000008024000040240000002400D4810B54D
:1017B0000B4901600C49416000214FF48042816077
:1017C000C0E9031241618161C1610162FEF778FFE6
:1017D000002803D0BDE81040FEF765BE10BD000034
:1017E000005400405C000020A086010010B586B0C7
:1017F000002417480094019402940394049413491C
:10180000059401605321C0E9011442F20F71C0E94F
:10181000031444618461FFF7D1FB08B1FEF743FE76
:101820004FF48050009069460948FFF787FC08B1E3
:10183000FEF739FE049404A905480594FFF780FBE0
:10184000002801D0FEF72FFE06B010BD00000140B9
:10185000B000002010B58EB00024079408940994BD
:101860000A940B941C2168460C94FEF77AFD2248DA
:101870004FF0804101605321C0E9011444F61F611B
:10188000C0E903148461FFF799FB08B1FEF70BFE72
:101890004FF48050079007A91748FFF74FFC08B195
:1018A000FEF701FE1448FFF7E0FD08B1FEF7FBFD6F
:1018B0000B940BA910480C94FFF742FB08B1FEF7FC
:1018C000F2FD6020CDE900040294002269460A4836
:1018D0000494FFF764FD08B1FEF7E5FD04226946B4
:1018E0000548FFF75CFD08B1FEF7DDFD0248FFF794
:1018F0002DFD0EB010BD0000F80000200C4810B502
:101900000A4901604FF4E1314160002181600C22FD
:10191000C160C0E904128161C161FFF73CFE00288B
:1019200003D0BDE81040FEF7BEBD10BD0010014061
:1019300040010020FEE7FEE77047704700EB8000A3
:101940004FF4FA7101EB40000149096848637047A0
:10195000F8000020FEF7ACBF30B593B030216846E8
:10196000FEF7FFFC14210CA8FEF7FBFC1D48002528
:10197000016841F080510160006800F080501190D2
:101980001948016821F4404141F4004101600068B8
:10199000022400F4404011900120009000040190C6
:1019A0008001CDE9064019200890A820CDE909045E
:1019B00004200B906846FFF701F908B172B6FEE704
:1019C0000CA90F2081E831004FF48050CDE90F05BC
:1019D00002210CA8FFF706F8002801D072B6FEE736
:1019E00013B030BD4038024000700040024801682A
:1019F00041F470010160704788ED00E00148FFF795
:101A00000CBC0000B0000020F0B502681F4C204D57
:101A1000204E214F4FF0804CA04207D0604505D0AA
:101A2000A84203D0B04201D0B84203D122F07003E3
:101A30004A681A43A04210D060450ED0A8420CD08C
:101A4000B0420AD0B84208D0144B984205D0144B8B
:101A5000984202D0134B984203D122F44073CA68D3
:101A60001A434B6922F080021A438B68C3620B68E9
:101A70008362A04201D109690163016841F0040158
:101A80000160012141610260F0BD000000000140E1
:101A90000004004000080040000C004000400140ED
:101AA000004401400048014010B501F01F0101232E
:101AB000046A8B409C430462036A8A4013430362B6
:101AC00010BD10B5846842EA032224F47F440A431F
:101AD0002243826010BD826822F070020A4342F005
:101AE000070181607047000030B5026A036A23F085
:101AF000010303624368846924F073050C682C4376
:101B000022F002058A682A430C4DA84206D122F031
:101B10000805CA6842EA050222F0040207D14D69AD
:101B200023F4407345EA03058B6943EA05034360E8
:101B3000846149684163026230BD000000000140D9
:101B400030B5036A026A22F01002026242688469B8
:101B50000D6824F4E64444EA05248D6823F020034C
:101B600043EA05130C4DA84206D1CD6823F080034B
:101B700043EA051323F0400307D14D6922F4406284
:101B800042EA85028D6942EA8502426084614968C1
:101B90008163036230BD00000000014030B5026A7D
:101BA000036A23F4807303624368C46922F40072F9
:101BB00024F073050C682C438D6842EA05220C4D15
:101BC000A84206D1CD6822F4006242EA052222F43E
:101BD000806207D14D6923F4405343EA05138D69B0
:101BE00043EA05134360C4614968C163026230BDC2
:101BF0000000014030B5046A026A22F48052026299
:101C00004268C3690D6823F4E64343EA05238D68FF
:101C100024F4005444EA0534064DA84204D14D6929
:101C200022F4804242EA85124260C361496801643D
:101C3000046230BD0000014010B5046A036A23F05D
:101C400001030362836923F0F00343EA021324F0E3
:101C50000A020A438361026210BD10B5036A046A76
:101C600024F010040462846923F0A00324F4704477
:101C700044EA023243EA01118261016210BD0000B0
:101C800070B5044600680169E26821F440511143CF
:101C90000161A1682069E269014360691043014361
:101CA0002068C26849F20C639A430A43C260206804
:101CB0004169A26921F440711143416131492068B1
:101CC000884202D03049884202D1FEF735FF01E058
:101CD000FEF722FFE2690023192164253226B2F5BE
:101CE000004F626828D0A0FB0101930F9200FEF71D
:101CF000C1FA0146B0FBF5F06FF01802504301EB5A
:101D0000800006EB0010B0FBF5F000F0F002B1FB34
:101D1000F5F002EB0012B1FBF5F06FF01803584339
:101D200001EB800006EB0010B0FBF5F000F00F00B7
:101D300021681044886070BDA0FB010192185B41CE
:101D4000FEF798FA0146B0FBF5F00201B1FBF5F0A1
:101D50006FF01803584301EB800006EBC000B0FBA6
:101D6000F5F000F0F80002EB4002B1FBF5F058434B
:101D700001EB800006EBC000B0FBF5F000F00700BF
:101D8000D6E7000000100140001401408162828506
:101D9000C28500214164222180F84210016921B1ED
:101DA0000168CA6842F48072CA6001684A6942F0F8
:101DB00001024A610068C16841F02001C160002051
:101DC0007047FEE70907090E002804DB00F1E02058
:101DD00080F80014704700F00F0000F1E02080F858
:101DE000141D70472DE9F041444C206B401C2063CA
:101DF00003286FDB2068424E10F0010F00F1010054
:101E0000404D206034D104F11C07388800EE100AE0
:101E10003D48B8EE400A00F061F9788800EE100AFB
:101E20003A48B8EE400A00F059F9307800EE100A4E
:101E30003548B8EE400A00F087F884ED010A2878AA
:101E400000EE100A3148B8EE400A00F07DF804F1C7
:101E5000080184ED020A081FFFF715FC94ED010A42
:101E60002B4800F03BF994ED020A2A4800F036F9BD
:101E70003178E068081A60612A78236900EE100A58
:101E8000D31AA361C4E90312B8EEC00A204800F0D7
:101E900029F984ED010A94ED060A1E48B8EEC00A3D
:101EA00000F020F984ED020A94ED0D0A84ED090A90
:101EB00094ED0E0A84ED0B0A94ED010A00F02CF863
:101EC00084ED0D0A94ED020A00F026F884ED0E0A66
:101ED00000202063FEF7AAFA94ED0A0ABCEEC00ABD
:101EE00010EE100A94ED080ABDE8F041BCEEC00AFD
:101EF00081B210EE100A80B2FFF720BD140000205E
:101F0000500000205100002098010020B80100205E
:101F1000D8010020F801002010EE100A064988427E
:101F200002DD9FED060A704710EE100A0449884250
:101F3000F9D99FED040A70470000B4420000B44292
:101F40000000B4C20000B4C2D0ED000A30EEC00AF6
:101F500010EE101A80ED020AB1F1404F0AD810EECF
:101F6000101AB1F1804F05DC9FED1E0A80ED020AC8
:101F700080ED070AD0ED020A1B4A10EE901A91423A
:101F800019D210EE901A194A914214DA90ED070A0C
:101F900030EE200A10EE101A80ED070A914202DDA1
:101FA000B2EE040A05E010EE101A914203DABAEE1E
:101FB000040A80ED070A90ED040A90ED051AD0EDB1
:101FC000071A20EE200A01EE210A90ED031AD0ED47
:101FD000061A30EEC11A01EE810A80ED010AC0ED49
:101FE000030A704700000000000020C100002041EB
:101FF0002DED048BFEF764FCFFF7AEFCFFF760FBF2
:10200000FFF728FCFFF77AFCFFF7D0FBFFF7EEFBAA
:102010002148FFF75DF82148FFF728F800211F4805
:10202000FFF752FA01221E491E48FFF71DFB9FEDE4
:102030001E8ADFED1E8A9FED1E9AB0EE481AF0EE62
:10204000680AB0EE490A1B4800F044F8B0EE481A9E
:10205000F0EE680AB0EE490A174800F03BF89FED31
:10206000178ADFED178A9FED179AB0EE481AF0EE47
:10207000680AB0EE490A144800F02CF8B0EE481A8D
:10208000F0EE680AB0EE490A104800F023F8104854
:102090007F2101804180FEE7B0000020F800002091
:1020A0000000002040010020CDCCCC3D6F12833BCE
:1020B000EC51383E98010020B80100200AD7A33B1C
:1020C000000000009A99C940D8010020F8010020C2
:1020D00030000020103080EC030A704780ED000AC9
:1020E00070470000D0ED000A30EEC00A10EE101A62
:1020F00080ED020AB1F17C5F08DA10EE101AB1F13E
:102100003F4F03D29FED100A80ED020A90ED070ABF
:10211000D0ED020A30EE201A80ED071A90ED040A85
:10212000D0ED051A20EE200A01EE810A90ED031A87
:10213000D0ED061A30EEC11A01EE810A80ED010AD7
:10214000C0ED030A70470000000000004FF040702F
:10215000E1EE100A704700000000000000000102DC
:102160000304060708090000000001020304000040
:1021700090210008000000205C000000D001000851
:10218000EC2100085C0000201C080000EC010008A5
:10219000000000000100000010000000000000002E
:1021A0000024F40000000000000000000000000017
:1021B000000000000000000000000000000000001F
:1021C000000000000000000000000000000000000F
:1021D00000000000000000000000000000000000FF
:0C21E000000000000000000000000000F3
:040000050800019559
:00000001FF
